{
  "contractName": "Federation",
  "abi": [
    {
      "constant": true,
      "inputs": [
        {
          "name": "",
          "type": "bytes32"
        }
      ],
      "name": "service",
      "outputs": [
        {
          "name": "creator",
          "type": "address"
        },
        {
          "name": "endpoint_consumer",
          "type": "bytes32"
        },
        {
          "name": "id",
          "type": "bytes32"
        },
        {
          "name": "provider",
          "type": "address"
        },
        {
          "name": "endpoint_provider",
          "type": "bytes32"
        },
        {
          "name": "req_info",
          "type": "bytes"
        },
        {
          "name": "state",
          "type": "uint8"
        }
      ],
      "payable": false,
      "stateMutability": "view",
      "type": "function"
    },
    {
      "constant": true,
      "inputs": [
        {
          "name": "",
          "type": "bytes32"
        }
      ],
      "name": "bidCount",
      "outputs": [
        {
          "name": "",
          "type": "uint256"
        }
      ],
      "payable": false,
      "stateMutability": "view",
      "type": "function"
    },
    {
      "constant": true,
      "inputs": [
        {
          "name": "",
          "type": "address"
        }
      ],
      "name": "operator",
      "outputs": [
        {
          "name": "name",
          "type": "bytes32"
        },
        {
          "name": "registered",
          "type": "bool"
        }
      ],
      "payable": false,
      "stateMutability": "view",
      "type": "function"
    },
    {
      "constant": true,
      "inputs": [
        {
          "name": "",
          "type": "bytes32"
        },
        {
          "name": "",
          "type": "uint256"
        }
      ],
      "name": "bids",
      "outputs": [
        {
          "name": "bid_address",
          "type": "address"
        },
        {
          "name": "price",
          "type": "uint256"
        },
        {
          "name": "endpoint_provider",
          "type": "bytes32"
        }
      ],
      "payable": false,
      "stateMutability": "view",
      "type": "function"
    },
    {
      "anonymous": false,
      "inputs": [
        {
          "indexed": false,
          "name": "operator",
          "type": "address"
        },
        {
          "indexed": false,
          "name": "name",
          "type": "bytes32"
        }
      ],
      "name": "OperatorRegistered",
      "type": "event"
    },
    {
      "anonymous": false,
      "inputs": [
        {
          "indexed": false,
          "name": "requirements",
          "type": "bytes"
        },
        {
          "indexed": false,
          "name": "id",
          "type": "bytes32"
        }
      ],
      "name": "ServiceAnnouncement",
      "type": "event"
    },
    {
      "anonymous": false,
      "inputs": [
        {
          "indexed": false,
          "name": "_id",
          "type": "bytes32"
        },
        {
          "indexed": false,
          "name": "max_bid_index",
          "type": "uint256"
        }
      ],
      "name": "NewBid",
      "type": "event"
    },
    {
      "anonymous": false,
      "inputs": [
        {
          "indexed": false,
          "name": "_id",
          "type": "bytes32"
        }
      ],
      "name": "ServiceAnnouncementClosed",
      "type": "event"
    },
    {
      "anonymous": false,
      "inputs": [
        {
          "indexed": false,
          "name": "_id",
          "type": "bytes32"
        }
      ],
      "name": "ServiceDeployedEvent",
      "type": "event"
    },
    {
      "constant": false,
      "inputs": [
        {
          "name": "name",
          "type": "bytes32"
        }
      ],
      "name": "addOperator",
      "outputs": [],
      "payable": false,
      "stateMutability": "nonpayable",
      "type": "function"
    },
    {
      "constant": true,
      "inputs": [
        {
          "name": "op_address",
          "type": "address"
        }
      ],
      "name": "getOperatorInfo",
      "outputs": [
        {
          "name": "name",
          "type": "bytes32"
        }
      ],
      "payable": false,
      "stateMutability": "view",
      "type": "function"
    },
    {
      "constant": false,
      "inputs": [
        {
          "name": "_requirements",
          "type": "bytes"
        },
        {
          "name": "_endpoint_consumer",
          "type": "bytes32"
        },
        {
          "name": "_id",
          "type": "bytes32"
        }
      ],
      "name": "AnnounceService",
      "outputs": [
        {
          "name": "",
          "type": "uint8"
        }
      ],
      "payable": false,
      "stateMutability": "nonpayable",
      "type": "function"
    },
    {
      "constant": true,
      "inputs": [
        {
          "name": "_id",
          "type": "bytes32"
        }
      ],
      "name": "GetServiceState",
      "outputs": [
        {
          "name": "",
          "type": "uint8"
        }
      ],
      "payable": false,
      "stateMutability": "view",
      "type": "function"
    },
    {
      "constant": true,
      "inputs": [
        {
          "name": "_id",
          "type": "bytes32"
        },
        {
          "name": "provider",
          "type": "bool"
        },
        {
          "name": "call_address",
          "type": "address"
        }
      ],
      "name": "GetServiceInfo",
      "outputs": [
        {
          "name": "",
          "type": "bytes32"
        },
        {
          "name": "",
          "type": "bytes32"
        },
        {
          "name": "",
          "type": "bytes"
        }
      ],
      "payable": false,
      "stateMutability": "view",
      "type": "function"
    },
    {
      "constant": false,
      "inputs": [
        {
          "name": "_id",
          "type": "bytes32"
        },
        {
          "name": "_price",
          "type": "uint32"
        },
        {
          "name": "_endpoint",
          "type": "bytes32"
        }
      ],
      "name": "PlaceBid",
      "outputs": [
        {
          "name": "",
          "type": "uint256"
        }
      ],
      "payable": false,
      "stateMutability": "nonpayable",
      "type": "function"
    },
    {
      "constant": true,
      "inputs": [
        {
          "name": "_id",
          "type": "bytes32"
        },
        {
          "name": "_creator",
          "type": "address"
        }
      ],
      "name": "GetBidCount",
      "outputs": [
        {
          "name": "",
          "type": "uint256"
        }
      ],
      "payable": false,
      "stateMutability": "view",
      "type": "function"
    },
    {
      "constant": true,
      "inputs": [
        {
          "name": "_id",
          "type": "bytes32"
        },
        {
          "name": "bider_index",
          "type": "uint256"
        },
        {
          "name": "_creator",
          "type": "address"
        }
      ],
      "name": "GetBid",
      "outputs": [
        {
          "name": "",
          "type": "address"
        },
        {
          "name": "",
          "type": "uint256"
        },
        {
          "name": "",
          "type": "uint256"
        }
      ],
      "payable": false,
      "stateMutability": "view",
      "type": "function"
    },
    {
      "constant": false,
      "inputs": [
        {
          "name": "_id",
          "type": "bytes32"
        },
        {
          "name": "bider_index",
          "type": "uint256"
        }
      ],
      "name": "ChooseProvider",
      "outputs": [
        {
          "name": "endpoint_provider",
          "type": "bytes32"
        }
      ],
      "payable": false,
      "stateMutability": "nonpayable",
      "type": "function"
    },
    {
      "constant": true,
      "inputs": [
        {
          "name": "_id",
          "type": "bytes32"
        },
        {
          "name": "_winner",
          "type": "address"
        }
      ],
      "name": "isWinner",
      "outputs": [
        {
          "name": "",
          "type": "bool"
        }
      ],
      "payable": false,
      "stateMutability": "view",
      "type": "function"
    },
    {
      "constant": false,
      "inputs": [
        {
          "name": "info",
          "type": "bytes"
        },
        {
          "name": "_id",
          "type": "bytes32"
        }
      ],
      "name": "ServiceDeployed",
      "outputs": [
        {
          "name": "",
          "type": "bool"
        }
      ],
      "payable": false,
      "stateMutability": "nonpayable",
      "type": "function"
    }
  ],
  "bytecode": "0x608060405234801561001057600080fd5b5061276a806100206000396000f3fe6080604052600436106100db576000357c0100000000000000000000000000000000000000000000000000000000900463ffffffff16806302b34f1f146100e057806327d9ab5d146102245780632f6ddeae146102895780633ae10dce146102f257806357c91f5f1461034b5780635fc9bd92146103ba5780636f78c7cd1461046d5780638610372c146104a85780639a307391146104f75780639c382a56146105675780639cc19f5b14610651578063a255916b146106c4578063adf6277214610721578063ce646b131461081f578063f7e65b1c1461090d575b600080fd5b3480156100ec57600080fd5b506101196004803603602081101561010357600080fd5b81019080803590602001909291905050506109a0565b604051808873ffffffffffffffffffffffffffffffffffffffff1673ffffffffffffffffffffffffffffffffffffffff1681526020018781526020018681526020018573ffffffffffffffffffffffffffffffffffffffff1673ffffffffffffffffffffffffffffffffffffffff168152602001848152602001806020018360028111156101a357fe5b60ff168152602001828103825284818151815260200191508051906020019080838360005b838110156101e35780820151818401526020810190506101c8565b50505050905090810190601f1680156102105780820380516001836020036101000a031916815260200191505b509850505050505050505060405180910390f35b34801561023057600080fd5b506102736004803603602081101561024757600080fd5b81019080803573ffffffffffffffffffffffffffffffffffffffff169060200190929190505050610ac7565b6040518082815260200191505060405180910390f35b34801561029557600080fd5b506102dc600480360360608110156102ac57600080fd5b8101908080359060200190929190803563ffffffff16906020019092919080359060200190929190505050610bcb565b6040518082815260200191505060405180910390f35b3480156102fe57600080fd5b506103356004803603604081101561031557600080fd5b810190808035906020019092919080359060200190929190505050610eb2565b6040518082815260200191505060405180910390f35b34801561035757600080fd5b506103a46004803603604081101561036e57600080fd5b8101908080359060200190929190803573ffffffffffffffffffffffffffffffffffffffff16906020019092919050505061125a565b6040518082815260200191505060405180910390f35b3480156103c657600080fd5b5061041d600480360360608110156103dd57600080fd5b810190808035906020019092919080359060200190929190803573ffffffffffffffffffffffffffffffffffffffff1690602001909291905050506113f6565b604051808473ffffffffffffffffffffffffffffffffffffffff1673ffffffffffffffffffffffffffffffffffffffff168152602001838152602001828152602001935050505060405180910390f35b34801561047957600080fd5b506104a66004803603602081101561049057600080fd5b8101908080359060200190929190505050611690565b005b3480156104b457600080fd5b506104e1600480360360208110156104cb57600080fd5b8101908080359060200190929190505050611871565b6040518082815260200191505060405180910390f35b34801561050357600080fd5b506105466004803603602081101561051a57600080fd5b81019080803573ffffffffffffffffffffffffffffffffffffffff169060200190929190505050611889565b60405180838152602001821515151581526020019250505060405180910390f35b34801561057357600080fd5b506106376004803603604081101561058a57600080fd5b81019080803590602001906401000000008111156105a757600080fd5b8201836020820111156105b957600080fd5b803590602001918460018302840111640100000000831117156105db57600080fd5b91908080601f016020809104026020016040519081016040528093929190818152602001838380828437600081840152601f19601f820116905080830192505050505050509192919290803590602001909291905050506118ba565b604051808215151515815260200191505060405180910390f35b34801561065d57600080fd5b506106aa6004803603604081101561067457600080fd5b8101908080359060200190929190803573ffffffffffffffffffffffffffffffffffffffff169060200190929190505050611b80565b604051808215151515815260200191505060405180910390f35b3480156106d057600080fd5b506106fd600480360360208110156106e757600080fd5b8101908080359060200190929190505050611ccb565b6040518082600281111561070d57fe5b60ff16815260200191505060405180910390f35b34801561072d57600080fd5b506107fb6004803603606081101561074457600080fd5b810190808035906020019064010000000081111561076157600080fd5b82018360208201111561077357600080fd5b8035906020019184600183028401116401000000008311171561079557600080fd5b91908080601f016020809104026020016040519081016040528093929190818152602001838380828437600081840152601f19601f8201169050808301925050505050505091929192908035906020019092919080359060200190929190505050611cf8565b6040518082600281111561080b57fe5b60ff16815260200191505060405180910390f35b34801561082b57600080fd5b506108846004803603606081101561084257600080fd5b8101908080359060200190929190803515159060200190929190803573ffffffffffffffffffffffffffffffffffffffff1690602001909291905050506120cd565b6040518084815260200183815260200180602001828103825283818151815260200191508051906020019080838360005b838110156108d05780820151818401526020810190506108b5565b50505050905090810190601f1680156108fd5780820380516001836020036101000a031916815260200191505b5094505050505060405180910390f35b34801561091957600080fd5b506109506004803603604081101561093057600080fd5b8101908080359060200190929190803590602001909291905050506125b3565b604051808473ffffffffffffffffffffffffffffffffffffffff1673ffffffffffffffffffffffffffffffffffffffff168152602001838152602001828152602001935050505060405180910390f35b60026020528060005260406000206000915090508060000160009054906101000a900473ffffffffffffffffffffffffffffffffffffffff16908060010154908060020154908060030160009054906101000a900473ffffffffffffffffffffffffffffffffffffffff1690806004015490806005018054600181600116156101000203166002900480601f016020809104026020016040519081016040528092919081815260200182805460018160011615610100020316600290048015610aaa5780601f10610a7f57610100808354040283529160200191610aaa565b820191906000526020600020905b815481529060010190602001808311610a8d57829003601f168201915b5050505050908060060160009054906101000a900460ff16905087565b600080600360008473ffffffffffffffffffffffffffffffffffffffff1673ffffffffffffffffffffffffffffffffffffffff1681526020019081526020016000209050600115158160010160009054906101000a900460ff161515141515610bbe576040517f08c379a000000000000000000000000000000000000000000000000000000000815260040180806020018281038252603e8152602001807f4f70657261746f72206973206e6f74207265676973746572656420776974682081526020017f7468697320616464726573732e20506c656173652072656769737465722e000081525060400191505060405180910390fd5b8060000154915050919050565b600080600360003373ffffffffffffffffffffffffffffffffffffffff1673ffffffffffffffffffffffffffffffffffffffff16815260200190815260200160002090506000600260008781526020019081526020016000209050600115158260010160009054906101000a900460ff161515141515610cd9576040517f08c379a00000000000000000000000000000000000000000000000000000000081526004018080602001828103825260398152602001807f4f70657261746f72206973206e6f7420726567697374657265642e2043616e2081526020017f6e6f74206269642e20506c656173652072656769737465722e0000000000000081525060400191505060405180910390fd5b60006002811115610ce657fe5b8160060160009054906101000a900460ff166002811115610d0357fe5b141515610d78576040517f08c379a000000000000000000000000000000000000000000000000000000000815260040180806020018281038252601f8152602001807f5365727669636520697320636c6f736564206f72206e6f74206578697374730081525060200191505060405180910390fd5b6000600160008881526020019081526020016000206060604051908101604052803373ffffffffffffffffffffffffffffffffffffffff1681526020018863ffffffff168152602001878152509080600181540180825580915050906001820390600052602060002090600302016000909192909190915060008201518160000160006101000a81548173ffffffffffffffffffffffffffffffffffffffff021916908373ffffffffffffffffffffffffffffffffffffffff16021790555060208201518160010155604082015181600201555050905080600080898152602001908152602001600020819055507fdb578ec7204282ed3ffcec84ef9d2ca9adda7fb0c0b707010bad5cce9f18f41f8782604051808381526020018281526020019250505060405180910390a18093505050509392505050565b6000806002600085815260200190815260200160002090506000600160008681526020019081526020016000209050848260020154141515610f5c576040517f08c379a00000000000000000000000000000000000000000000000000000000081526004018080602001828103825260128152602001807f53657276696365206e6f7420657869737473000000000000000000000000000081525060200191505060405180910390fd5b3373ffffffffffffffffffffffffffffffffffffffff168260000160009054906101000a900473ffffffffffffffffffffffffffffffffffffffff1673ffffffffffffffffffffffffffffffffffffffff16141515611049576040517f08c379a000000000000000000000000000000000000000000000000000000000815260040180806020018281038252602f8152602001807f4f6e6c7920736572766963652063726561746f722063616e20636c6f7365207481526020017f686520616e6e6f756e63656d656e74000000000000000000000000000000000081525060400191505060405180910390fd5b6000600281111561105657fe5b8260060160009054906101000a900460ff16600281111561107357fe5b14151561110e576040517f08c379a00000000000000000000000000000000000000000000000000000000081526004018080602001828103825260238152602001807f5365727669636520616e6e6f756e63656d656e7420616c726561647920636c6f81526020017f736564000000000000000000000000000000000000000000000000000000000081525060400191505060405180910390fd5b60018260060160006101000a81548160ff0219169083600281111561112f57fe5b0217905550808481548110151561114257fe5b906000526020600020906003020160000160009054906101000a900473ffffffffffffffffffffffffffffffffffffffff166002600087815260200190815260200160002060030160006101000a81548173ffffffffffffffffffffffffffffffffffffffff021916908373ffffffffffffffffffffffffffffffffffffffff16021790555080848154811015156111d657fe5b90600052602060002090600302016002015460026000878152602001908152602001600020600401819055507f0fa967e5a697cd5b1a32e3ed8e2a5b983caf2ae1bb54e8fe37fae071347e8fea856040518082815260200191505060405180910390a160026000868152602001908152602001600020600401549250505092915050565b6000806002600085815260200190815260200160002090508381600201541415156112ed576040517f08c379a00000000000000000000000000000000000000000000000000000000081526004018080602001828103825260128152602001807f53657276696365206e6f7420657869737473000000000000000000000000000081525060200191505060405180910390fd5b8273ffffffffffffffffffffffffffffffffffffffff168160000160009054906101000a900473ffffffffffffffffffffffffffffffffffffffff1673ffffffffffffffffffffffffffffffffffffffff161415156113da576040517f08c379a00000000000000000000000000000000000000000000000000000000081526004018080602001828103825260328152602001807f4f6e6c7920736572766963652063726561746f722063616e206c6f6f6b20696e81526020017f746f2074686520696e666f726d6174696f6e000000000000000000000000000081525060400191505060405180910390fd5b6000808581526020019081526020016000205491505092915050565b60008060008060026000888152602001908152602001600020905060006001600089815260200190815260200160002090508782600201541415156114a3576040517f08c379a00000000000000000000000000000000000000000000000000000000081526004018080602001828103825260128152602001807f53657276696365206e6f7420657869737473000000000000000000000000000081525060200191505060405180910390fd5b8573ffffffffffffffffffffffffffffffffffffffff168260000160009054906101000a900473ffffffffffffffffffffffffffffffffffffffff1673ffffffffffffffffffffffffffffffffffffffff16141515611590576040517f08c379a00000000000000000000000000000000000000000000000000000000081526004018080602001828103825260328152602001807f4f6e6c7920736572766963652063726561746f722063616e206c6f6f6b20696e81526020017f746f2074686520696e666f726d6174696f6e000000000000000000000000000081525060400191505060405180910390fd5b6000600160008a81526020019081526020016000208054905011151561161e576040517f08c379a000000000000000000000000000000000000000000000000000000000815260040180806020018281038252601d8152602001807f4e6f206269647320666f7220726571756573746564205365727669636500000081525060200191505060405180910390fd5b808781548110151561162c57fe5b906000526020600020906003020160000160009054906101000a900473ffffffffffffffffffffffffffffffffffffffff16818881548110151561166c57fe5b90600052602060002090600302016001015488945094509450505093509350939050565b6000600360003373ffffffffffffffffffffffffffffffffffffffff1673ffffffffffffffffffffffffffffffffffffffff16815260200190815260200160002090506000602060ff1611151561174f576040517f08c379a00000000000000000000000000000000000000000000000000000000081526004018080602001828103825260118152602001807f4e616d65206973206e6f742076616c696400000000000000000000000000000081525060200191505060405180910390fd5b600015158160010160009054906101000a900460ff1615151415156117dc576040517f08c379a000000000000000000000000000000000000000000000000000000000815260040180806020018281038252601b8152602001807f4f70657261746f7220616c72656164792072656769737465726564000000000081525060200191505060405180910390fd5b81816000018190555060018160010160006101000a81548160ff0219169083151502179055507fe8e68cef1c3a761ed7be7e8463a375f27f7bc335e51824223cacce636ec5c3fe3383604051808373ffffffffffffffffffffffffffffffffffffffff1673ffffffffffffffffffffffffffffffffffffffff1681526020018281526020019250505060405180910390a15050565b60006020528060005260406000206000915090505481565b60036020528060005260406000206000915090508060000154908060010160009054906101000a900460ff16905082565b60008060026000848152602001908152602001600020905082816002015414151561194d576040517f08c379a00000000000000000000000000000000000000000000000000000000081526004018080602001828103825260128152602001807f53657276696365206e6f7420657869737473000000000000000000000000000081525060200191505060405180910390fd5b3373ffffffffffffffffffffffffffffffffffffffff168160030160009054906101000a900473ffffffffffffffffffffffffffffffffffffffff1673ffffffffffffffffffffffffffffffffffffffff16141515611a3a576040517f08c379a000000000000000000000000000000000000000000000000000000000815260040180806020018281038252602c8152602001807f4f6e6c7920736572766963652070726f76696465722063616e206465706c6f7981526020017f207468652073657276696365000000000000000000000000000000000000000081525060400191505060405180910390fd5b60016002811115611a4757fe5b8160060160009054906101000a900460ff166002811115611a6457fe5b141515611aff576040517f08c379a00000000000000000000000000000000000000000000000000000000081526004018080602001828103825260358152602001807f536572766963652077696e6e6572206e6f742063686f6f73656e2e205365727681526020017f6963653a204445504c4f594544206f72204f50454e000000000000000000000081525060400191505060405180910390fd5b60028160060160006101000a81548160ff02191690836002811115611b2057fe5b021790555083816005019080519060200190611b3d929190612619565b507f5cfc0037f79529279d288edea103e1e1d3f2a2b727bdf8113017043ea939488b836040518082815260200191505060405180910390a1600191505092915050565b60008060026000858152602001908152602001600020905060016002811115611ba557fe5b8160060160009054906101000a900460ff166002811115611bc257fe5b141515611c5d576040517f08c379a00000000000000000000000000000000000000000000000000000000081526004018080602001828103825260358152602001807f536572766963652077696e6e6572206e6f742063686f6f73656e2e205365727681526020017f6963653a204445504c4f594544206f72204f50454e000000000000000000000081525060400191505060405180910390fd5b8273ffffffffffffffffffffffffffffffffffffffff168160030160009054906101000a900473ffffffffffffffffffffffffffffffffffffffff1673ffffffffffffffffffffffffffffffffffffffff161415611cbf576001915050611cc5565b60009150505b92915050565b60006002600083815260200190815260200160002060060160009054906101000a900460ff169050919050565b600080600360003373ffffffffffffffffffffffffffffffffffffffff1673ffffffffffffffffffffffffffffffffffffffff16815260200190815260200160002090506000600260008581526020019081526020016000209050600115158260010160009054906101000a900460ff161515141515611e06576040517f08c379a00000000000000000000000000000000000000000000000000000000081526004018080602001828103825260398152602001807f4f70657261746f72206973206e6f7420726567697374657265642e2043616e2081526020017f6e6f74206269642e20506c656173652072656769737465722e0000000000000081525060400191505060405180910390fd5b83816002015414151515611ea8576040517f08c379a00000000000000000000000000000000000000000000000000000000081526004018080602001828103825260268152602001807f5365727669636520494420666f72206f70657261746f7220616c72656164792081526020017f657869737473000000000000000000000000000000000000000000000000000081525060400191505060405180910390fd5b60e0604051908101604052803373ffffffffffffffffffffffffffffffffffffffff1681526020018681526020018581526020013373ffffffffffffffffffffffffffffffffffffffff16815260200186815260200187815260200160006002811115611f1157fe5b8152506002600086815260200190815260200160002060008201518160000160006101000a81548173ffffffffffffffffffffffffffffffffffffffff021916908373ffffffffffffffffffffffffffffffffffffffff160217905550602082015181600101556040820151816002015560608201518160030160006101000a81548173ffffffffffffffffffffffffffffffffffffffff021916908373ffffffffffffffffffffffffffffffffffffffff1602179055506080820151816004015560a0820151816005019080519060200190611fef929190612699565b5060c08201518160060160006101000a81548160ff0219169083600281111561201457fe5b02179055509050507fb7695f814983e3ba2a7424e9ff82b3cb1d03499243a8042cd59d0d650edf22e586856040518080602001838152602001828103825284818151815260200191508051906020019080838360005b8381101561208557808201518184015260208101905061206a565b50505050905090810190601f1680156120b25780820380516001836020036101000a031916815260200191505b50935050505060405180910390a16000925050509392505050565b60008060606000600360008673ffffffffffffffffffffffffffffffffffffffff1673ffffffffffffffffffffffffffffffffffffffff16815260200190815260200160002090506000600260008981526020019081526020016000209050600115158260010160009054906101000a900460ff1615151415156121df576040517f08c379a000000000000000000000000000000000000000000000000000000000815260040180806020018281038252603f8152602001807f4f70657261746f72206973206e6f7420726567697374657265642e2043616e2081526020017f6e6f74206c6f6f6b20696e746f2e20506c656173652072656769737465722e0081525060400191505060405180910390fd5b600160028111156121ec57fe5b8160060160009054906101000a900460ff16600281111561220957fe5b101515156122a5576040517f08c379a00000000000000000000000000000000000000000000000000000000081526004018080602001828103825260238152602001807f53657276696365206973207374696c6c206f70656e206f72206e6f742065786981526020017f737473000000000000000000000000000000000000000000000000000000000081525060400191505060405180910390fd5b600115158715151415612430578573ffffffffffffffffffffffffffffffffffffffff168160030160009054906101000a900473ffffffffffffffffffffffffffffffffffffffff1673ffffffffffffffffffffffffffffffffffffffff16141515612379576040517f08c379a000000000000000000000000000000000000000000000000000000000815260040180806020018281038252601b8152602001807f5468697320646f6d61696e206973206e6f7420612077696e6e6572000000000081525060200191505060405180910390fd5b8060020154816001015482600501808054600181600116156101000203166002900480601f01602080910402602001604051908101604052809291908181526020018280546001816001161561010002031660029004801561241c5780601f106123f15761010080835404028352916020019161241c565b820191906000526020600020905b8154815290600101906020018083116123ff57829003601f168201915b5050505050905094509450945050506125aa565b8573ffffffffffffffffffffffffffffffffffffffff168160000160009054906101000a900473ffffffffffffffffffffffffffffffffffffffff1673ffffffffffffffffffffffffffffffffffffffff161415156124f7576040517f08c379a000000000000000000000000000000000000000000000000000000000815260040180806020018281038252601c8152602001807f5468697320646f6d61696e206973206e6f7420612063726561746f720000000081525060200191505060405180910390fd5b8060020154816004015482600501808054600181600116156101000203166002900480601f01602080910402602001604051908101604052809291908181526020018280546001816001161561010002031660029004801561259a5780601f1061256f5761010080835404028352916020019161259a565b820191906000526020600020905b81548152906001019060200180831161257d57829003601f168201915b5050505050905094509450945050505b93509350939050565b6001602052816000526040600020818154811015156125ce57fe5b9060005260206000209060030201600091509150508060000160009054906101000a900473ffffffffffffffffffffffffffffffffffffffff16908060010154908060020154905083565b828054600181600116156101000203166002900490600052602060002090601f016020900481019282601f1061265a57805160ff1916838001178555612688565b82800160010185558215612688579182015b8281111561268757825182559160200191906001019061266c565b5b5090506126959190612719565b5090565b828054600181600116156101000203166002900490600052602060002090601f016020900481019282601f106126da57805160ff1916838001178555612708565b82800160010185558215612708579182015b828111156127075782518255916020019190600101906126ec565b5b5090506127159190612719565b5090565b61273b91905b8082111561273757600081600090555060010161271f565b5090565b9056fea165627a7a7230582043c9609b141c1bb4225e5230bef17b9a39de0dd68b4eaf597224dff432729a600029",
  "source": "// SPDX-License-Identifier: MIT\npragma solidity >=0.4.21 <0.7.0;\n\n// Define the smart contract\ncontract Federation {\n\n    // Define the possible states of a service\n    enum ServiceState {Open, Closed, Deployed}\n\n    // Define the Operator struct\n    struct Operator {\n        bytes32 name;\n        bool registered;\n    }\n\n    // Define the Service struct\n    struct Service {\n        address creator;\n        bytes32 endpoint_consumer;\n        bytes32 id;\n        address provider;\n        bytes32 endpoint_provider;\n        bytes req_info;\n        ServiceState state;\n    }\n\n    // Define the Bid struct\n    struct Bid {\n        address bid_address;\n        uint price;\n        bytes32 endpoint_provider;\n    }\n    \n    // Define mappings to store data\n    mapping(bytes32 => uint) public bidCount;\n    mapping(bytes32 => Bid[]) public bids;\n    mapping(bytes32 => Service) public service;\n    mapping(address => Operator) public operator;\n    \n    // Define events\n    event OperatorRegistered(address operator, bytes32 name);\n    event ServiceAnnouncement(bytes requirements, bytes32 id);\n    event NewBid(bytes32 _id, uint256 max_bid_index);\n    event ServiceAnnouncementClosed(bytes32 _id);\n    event ServiceDeployedEvent(bytes32 _id);\n\n    function addOperator(bytes32 name) public {\n        Operator storage current_operator = operator[msg.sender];\n        require(name.length > 0, \"Name is not valid\");\n        require(current_operator.registered == false, \"Operator already registered\");\n        current_operator.name = name;\n        current_operator.registered = true;\n        emit OperatorRegistered(msg.sender, name);\n    }\n\n    function getOperatorInfo(address op_address) public view returns (bytes32 name) {\n        Operator storage current_operator = operator[op_address];\n        require(current_operator.registered == true, \"Operator is not registered with this address. Please register.\");\n        return current_operator.name;\n\t}\n\n    function AnnounceService(bytes memory _requirements, bytes32 _endpoint_consumer, bytes32 _id) public returns(ServiceState) {\n        Operator storage current_operator = operator[msg.sender];\n        Service storage current_service = service[_id];\n        require(current_operator.registered == true, \"Operator is not registered. Can not bid. Please register.\");\n        require(current_service.id != _id, \"Service ID for operator already exists\");\n\n        service[_id] = Service(msg.sender, _endpoint_consumer, _id, msg.sender,  _endpoint_consumer, _requirements, ServiceState.Open);\n        emit ServiceAnnouncement(_requirements, _id);\n        return ServiceState.Open;\n    }\n\n    function GetServiceState(bytes32 _id) public view returns (ServiceState) {\n        return service[_id].state;\n    }\n\n    function GetServiceInfo(bytes32 _id, bool provider, address call_address) public view returns (bytes32, bytes32, bytes memory) {\n        Operator storage current_operator = operator[call_address];\n        Service storage current_service = service[_id];\n        require(current_operator.registered == true, \"Operator is not registered. Can not look into. Please register.\");\n        require(current_service.state >= ServiceState.Closed, \"Service is still open or not exists\");\n        if(provider == true) {\n                require(current_service.provider == call_address, \"This domain is not a winner\");\n                return(current_service.id, current_service.endpoint_consumer, current_service.req_info);\n        }\n        else {\n                require(current_service.creator == call_address, \"This domain is not a creator\");\n                return(current_service.id, current_service.endpoint_provider, current_service.req_info);\n        }\n    }\n\n    function PlaceBid(bytes32 _id, uint32 _price, bytes32 _endpoint) public returns (uint256) {\n        Operator storage current_operator = operator[msg.sender];\n        Service storage current_service = service[_id];\n        require(current_operator.registered == true, \"Operator is not registered. Can not bid. Please register.\");\n        require(current_service.state == ServiceState.Open, \"Service is closed or not exists\");\n        uint256 max_bid_index = bids[_id].push(Bid(msg.sender, _price, _endpoint));\n        bidCount[_id] = max_bid_index;\n        emit NewBid(_id, max_bid_index);\n        return max_bid_index;\n    }\n\n    function GetBidCount(bytes32 _id, address _creator) public view returns (uint256) {\n        Service storage current_service = service[_id];\n        require(current_service.id == _id, \"Service not exists\");\n        require(current_service.creator == _creator, \"Only service creator can look into the information\");\n        return bidCount[_id];\n    }\n\n    function GetBid(bytes32 _id, uint256 bider_index, address _creator) public view returns (address, uint, uint256) {\n        Service storage current_service = service[_id];\n        Bid[] storage current_bid_pool = bids[_id];\n        require(current_service.id == _id, \"Service not exists\");\n        require(current_service.creator == _creator, \"Only service creator can look into the information\");\n        require(bids[_id].length > 0, \"No bids for requested Service\");\n        return (current_bid_pool[bider_index].bid_address, current_bid_pool[bider_index].price, bider_index);\n    }\n\n    function ChooseProvider(bytes32 _id, uint256 bider_index) public returns (bytes32 endpoint_provider) {\n        Service storage current_service = service[_id];\n        Bid[] storage current_bid_pool = bids[_id];\n        require(current_service.id == _id, \"Service not exists\");\n        require(current_service.creator == msg.sender, \"Only service creator can close the announcement\");\n        require(current_service.state == ServiceState.Open, \"Service announcement already closed\");\n\n        current_service.state = ServiceState.Closed;\n        // address bid_address_= current_bid_pool[bider_index].bid_address;\n        service[_id].provider = current_bid_pool[bider_index].bid_address;\n        service[_id].endpoint_provider = current_bid_pool[bider_index].endpoint_provider;\n        emit ServiceAnnouncementClosed(_id);\n        return service[_id].endpoint_provider;\n        // return (current_bid_pool[bider_index].bid_address, current_bid_pool[bider_index].price);\n    }\n\n    function isWinner(bytes32 _id, address _winner) public view returns (bool) {\n        Service storage current_service = service[_id];\n        require(current_service.state == ServiceState.Closed, \"Service winner not choosen. Service: DEPLOYED or OPEN\");\n        if(current_service.provider == _winner) {\n            return true;\n        }\n        else {\n            return false;\n        }\n    }\n\n    function ServiceDeployed(bytes memory info, bytes32 _id) public returns (bool) {\n        Service storage current_service = service[_id];\n        require(current_service.id == _id, \"Service not exists\");\n        require(current_service.provider == msg.sender, \"Only service provider can deploy the service\");\n        require(current_service.state == ServiceState.Closed, \"Service winner not choosen. Service: DEPLOYED or OPEN\");\n        current_service.state = ServiceState.Deployed;\n        current_service.req_info = info;\n        emit ServiceDeployedEvent(_id);\n        return true;\n    }\n\n\n}\n",
  "sourcePath": "/smart-contracts/contracts/Federation.sol",
  "compiler": {
    "name": "solc",
    "version": "0.5.0+commit.1d4f565a.Emscripten.clang"
  },
  "schemaVersion": "3.4.16",
  "updatedAt": "2024-04-25T12:57:20.892Z",
  "networkType": "ethereum",
  "devdoc": {
    "methods": {}
  },
  "userdoc": {
    "methods": {}
  }
}